{
  "_format": "hh-sol-artifact-1",
  "contractName": "Web3EventBrite",
  "sourceName": "contracts/web3-eventbrite.sol",
  "abi": [
    {
      "anonymous": false,
      "inputs": [
        {
          "indexed": false,
          "internalType": "bytes32",
          "name": "eventID",
          "type": "bytes32"
        },
        {
          "indexed": false,
          "internalType": "address",
          "name": "attendeeAddress",
          "type": "address"
        }
      ],
      "name": "ConfirmedAttendee",
      "type": "event"
    },
    {
      "anonymous": false,
      "inputs": [
        {
          "indexed": false,
          "internalType": "bytes32",
          "name": "eventID",
          "type": "bytes32"
        }
      ],
      "name": "DepositsPaidOut",
      "type": "event"
    },
    {
      "anonymous": false,
      "inputs": [
        {
          "indexed": false,
          "internalType": "bytes32",
          "name": "eventID",
          "type": "bytes32"
        },
        {
          "indexed": false,
          "internalType": "address",
          "name": "creatorAddress",
          "type": "address"
        },
        {
          "indexed": false,
          "internalType": "uint256",
          "name": "eventTimestamp",
          "type": "uint256"
        },
        {
          "indexed": false,
          "internalType": "uint256",
          "name": "maxCapacity",
          "type": "uint256"
        },
        {
          "indexed": false,
          "internalType": "uint256",
          "name": "deposit",
          "type": "uint256"
        },
        {
          "indexed": false,
          "internalType": "string",
          "name": "eventDataCID",
          "type": "string"
        }
      ],
      "name": "NewEventCreated",
      "type": "event"
    },
    {
      "anonymous": false,
      "inputs": [
        {
          "indexed": false,
          "internalType": "bytes32",
          "name": "eventID",
          "type": "bytes32"
        },
        {
          "indexed": false,
          "internalType": "address",
          "name": "attendeeAddress",
          "type": "address"
        }
      ],
      "name": "NewRSVP",
      "type": "event"
    },
    {
      "inputs": [
        {
          "internalType": "bytes32",
          "name": "eventId",
          "type": "bytes32"
        }
      ],
      "name": "confirmAllAttendees",
      "outputs": [],
      "stateMutability": "nonpayable",
      "type": "function"
    },
    {
      "inputs": [
        {
          "internalType": "bytes32",
          "name": "eventId",
          "type": "bytes32"
        },
        {
          "internalType": "address",
          "name": "attendee",
          "type": "address"
        }
      ],
      "name": "confirmAttendee",
      "outputs": [],
      "stateMutability": "nonpayable",
      "type": "function"
    },
    {
      "inputs": [
        {
          "internalType": "uint256",
          "name": "eventTimestamp",
          "type": "uint256"
        },
        {
          "internalType": "uint256",
          "name": "deposit",
          "type": "uint256"
        },
        {
          "internalType": "uint256",
          "name": "maxCapacity",
          "type": "uint256"
        },
        {
          "internalType": "string",
          "name": "eventDataCID",
          "type": "string"
        }
      ],
      "name": "createNewEvent",
      "outputs": [],
      "stateMutability": "nonpayable",
      "type": "function"
    },
    {
      "inputs": [
        {
          "internalType": "bytes32",
          "name": "eventId",
          "type": "bytes32"
        }
      ],
      "name": "createNewRSVP",
      "outputs": [],
      "stateMutability": "payable",
      "type": "function"
    },
    {
      "inputs": [
        {
          "internalType": "bytes32",
          "name": "",
          "type": "bytes32"
        }
      ],
      "name": "idToEvent",
      "outputs": [
        {
          "internalType": "bytes32",
          "name": "eventId",
          "type": "bytes32"
        },
        {
          "internalType": "string",
          "name": "eventDataCID",
          "type": "string"
        },
        {
          "internalType": "address",
          "name": "eventOwner",
          "type": "address"
        },
        {
          "internalType": "uint256",
          "name": "eventTimestamp",
          "type": "uint256"
        },
        {
          "internalType": "uint256",
          "name": "deposit",
          "type": "uint256"
        },
        {
          "internalType": "uint256",
          "name": "maxCapacity",
          "type": "uint256"
        },
        {
          "internalType": "bool",
          "name": "paidOut",
          "type": "bool"
        }
      ],
      "stateMutability": "view",
      "type": "function"
    },
    {
      "inputs": [
        {
          "internalType": "bytes32",
          "name": "eventId",
          "type": "bytes32"
        }
      ],
      "name": "withdrawUnclaimedDeposits",
      "outputs": [],
      "stateMutability": "nonpayable",
      "type": "function"
    }
  ],
  "bytecode": "0x608060405234801561001057600080fd5b5061227c806100206000396000f3fe6080604052600436106100545760003560e01c806292098c1461005957806317f0165a146100825780636dcdf2cd1461009e57806379747571146100c7578063909ef021146100f0578063acdbe01214610133575b600080fd5b34801561006557600080fd5b50610080600480360381019061007b9190611699565b61015c565b005b61009c60048036038101906100979190611634565b610378565b005b3480156100aa57600080fd5b506100c560048036038101906100c0919061165d565b61060b565b005b3480156100d357600080fd5b506100ee60048036038101906100e99190611634565b610b84565b005b3480156100fc57600080fd5b5061011760048036038101906101129190611634565b611030565b60405161012a9796959493929190611ad2565b60405180910390f35b34801561013f57600080fd5b5061015a60048036038101906101559190611634565b611127565b005b600033308787876040516020016101779594939291906119b0565b60405160208183030381529060405280519060200120905060608060405180610120016040528084815260200186868080601f016020809104026020016040519081016040528093929190818152602001838380828437600081840152601f19601f8201169050808301925050505050505081526020013373ffffffffffffffffffffffffffffffffffffffff1681526020018981526020018881526020018781526020018381526020018281526020016000151581525060008085815260200190815260200160002060008201518160000155602082015181600101908051906020019061026792919061147e565b5060408201518160020160006101000a81548173ffffffffffffffffffffffffffffffffffffffff021916908373ffffffffffffffffffffffffffffffffffffffff160217905550606082015181600301556080820151816004015560a0820151816005015560c08201518160060190805190602001906102e9929190611504565b5060e0820151816007019080519060200190610306929190611504565b506101008201518160080160006101000a81548160ff0219169083151502179055509050507f2553138c3f9c9008f266dbdbe9fc64f5b71e098d06ef714a190a65a8b9fc6bf383338a898b8a8a6040516103669796959493929190611a68565b60405180910390a15050505050505050565b60008060008381526020019081526020016000209050806004015434146103d4576040517f08c379a00000000000000000000000000000000000000000000000000000000081526004016103cb90611ca8565b60405180910390fd5b806003015442111561041b576040517f08c379a000000000000000000000000000000000000000000000000000000000815260040161041290611c68565b60405180910390fd5b8060050154816006018054905010610468576040517f08c379a000000000000000000000000000000000000000000000000000000000815260040161045f90611b68565b60405180910390fd5b60005b81600601805490508160ff16101561056857816006018160ff16815481106104bc577f4e487b7100000000000000000000000000000000000000000000000000000000600052603260045260246000fd5b9060005260206000200160009054906101000a900473ffffffffffffffffffffffffffffffffffffffff1673ffffffffffffffffffffffffffffffffffffffff163373ffffffffffffffffffffffffffffffffffffffff161415610555576040517f08c379a000000000000000000000000000000000000000000000000000000000815260040161054c90611c48565b60405180910390fd5b808061056090611ea6565b91505061046b565b5080600601339080600181540180825580915050600190039060005260206000200160009091909190916101000a81548173ffffffffffffffffffffffffffffffffffffffff021916908373ffffffffffffffffffffffffffffffffffffffff1602179055507fb79f4240bbdd272d98e02a5db7f0cf156e5fc000961c517670a26eeeec63ed9082336040516105ff929190611a3f565b60405180910390a15050565b600080600084815260200190815260200160002090508060020160009054906101000a900473ffffffffffffffffffffffffffffffffffffffff1673ffffffffffffffffffffffffffffffffffffffff163373ffffffffffffffffffffffffffffffffffffffff16146106b3576040517f08c379a00000000000000000000000000000000000000000000000000000000081526004016106aa90611c88565b60405180910390fd5b600080600090505b82600601805490508160ff1610156107ea578373ffffffffffffffffffffffffffffffffffffffff16836006018260ff1681548110610723577f4e487b7100000000000000000000000000000000000000000000000000000000600052603260045260246000fd5b9060005260206000200160009054906101000a900473ffffffffffffffffffffffffffffffffffffffff1673ffffffffffffffffffffffffffffffffffffffff1614156107d757826006018160ff16815481106107a9577f4e487b7100000000000000000000000000000000000000000000000000000000600052603260045260246000fd5b9060005260206000200160009054906101000a900473ffffffffffffffffffffffffffffffffffffffff1691505b80806107e290611ea6565b9150506106bb565b508273ffffffffffffffffffffffffffffffffffffffff168173ffffffffffffffffffffffffffffffffffffffff1614610859576040517f08c379a000000000000000000000000000000000000000000000000000000000815260040161085090611b88565b60405180910390fd5b60005b82600701805490508160ff16101561095957826007018160ff16815481106108ad577f4e487b7100000000000000000000000000000000000000000000000000000000600052603260045260246000fd5b9060005260206000200160009054906101000a900473ffffffffffffffffffffffffffffffffffffffff1673ffffffffffffffffffffffffffffffffffffffff168473ffffffffffffffffffffffffffffffffffffffff161415610946576040517f08c379a000000000000000000000000000000000000000000000000000000000815260040161093d90611be8565b60405180910390fd5b808061095190611ea6565b91505061085c565b50600015158260080160009054906101000a900460ff161515146109b2576040517f08c379a00000000000000000000000000000000000000000000000000000000081526004016109a990611ba8565b60405180910390fd5b81600701839080600181540180825580915050600190039060005260206000200160009091909190916101000a81548173ffffffffffffffffffffffffffffffffffffffff021916908373ffffffffffffffffffffffffffffffffffffffff16021790555060008373ffffffffffffffffffffffffffffffffffffffff168360040154604051610a4190611a0f565b60006040518083038185875af1925050503d8060008114610a7e576040519150601f19603f3d011682016040523d82523d6000602084013e610a83565b606091505b50509050600015158115151415610b045782600701805480610ace577f4e487b7100000000000000000000000000000000000000000000000000000000600052603160045260246000fd5b6001900381819060005260206000200160006101000a81549073ffffffffffffffffffffffffffffffffffffffff021916905590555b80610b44576040517f08c379a0000000000000000000000000000000000000000000000000000000008152600401610b3b90611c08565b60405180910390fd5b7ff8d1583a733d83bdd3ef5464129d0a95a36d62b382d31c6d0467a61f4264381b8585604051610b75929190611a3f565b60405180910390a15050505050565b60008060008381526020019081526020016000206040518061012001604052908160008201548152602001600182018054610bbe90611e74565b80601f0160208091040260200160405190810160405280929190818152602001828054610bea90611e74565b8015610c375780601f10610c0c57610100808354040283529160200191610c37565b820191906000526020600020905b815481529060010190602001808311610c1a57829003601f168201915b505050505081526020016002820160009054906101000a900473ffffffffffffffffffffffffffffffffffffffff1673ffffffffffffffffffffffffffffffffffffffff1673ffffffffffffffffffffffffffffffffffffffff16815260200160038201548152602001600482015481526020016005820154815260200160068201805480602002602001604051908101604052809291908181526020018280548015610d3957602002820191906000526020600020905b8160009054906101000a900473ffffffffffffffffffffffffffffffffffffffff1673ffffffffffffffffffffffffffffffffffffffff1681526020019060010190808311610cef575b5050505050815260200160078201805480602002602001604051908101604052809291908181526020018280548015610dc757602002820191906000526020600020905b8160009054906101000a900473ffffffffffffffffffffffffffffffffffffffff1673ffffffffffffffffffffffffffffffffffffffff1681526020019060010190808311610d7d575b505050505081526020016008820160009054906101000a900460ff161515151581525050905080610100015115610e33576040517f08c379a0000000000000000000000000000000000000000000000000000000008152600401610e2a90611bc8565b60405180910390fd5b4262093a808260600151610e479190611cef565b1115610e88576040517f08c379a0000000000000000000000000000000000000000000000000000000008152600401610e7f90611b48565b60405180910390fd5b806040015173ffffffffffffffffffffffffffffffffffffffff163373ffffffffffffffffffffffffffffffffffffffff1614610efa576040517f08c379a0000000000000000000000000000000000000000000000000000000008152600401610ef190611c88565b60405180910390fd5b600081608001518260e00151518360c0015151610f179190611d9f565b610f219190611d45565b905060018261010001901515908115158152505060003373ffffffffffffffffffffffffffffffffffffffff1682604051610f5b90611a0f565b60006040518083038185875af1925050503d8060008114610f98576040519150601f19603f3d011682016040523d82523d6000602084013e610f9d565b606091505b5050905080610fb3576000151583610100015150505b80610ff3576040517f08c379a0000000000000000000000000000000000000000000000000000000008152600401610fea90611c28565b60405180910390fd5b7f393073ea1365f611c3d2f240c992960d2b99dc81715555d3fc40fc55ba80af9c846040516110229190611a24565b60405180910390a150505050565b600060205280600052604060002060009150905080600001549080600101805461105990611e74565b80601f016020809104026020016040519081016040528092919081815260200182805461108590611e74565b80156110d25780601f106110a7576101008083540402835291602001916110d2565b820191906000526020600020905b8154815290600101906020018083116110b557829003601f168201915b5050505050908060020160009054906101000a900473ffffffffffffffffffffffffffffffffffffffff16908060030154908060040154908060050154908060080160009054906101000a900460ff16905087565b6000806000838152602001908152602001600020604051806101200160405290816000820154815260200160018201805461116190611e74565b80601f016020809104026020016040519081016040528092919081815260200182805461118d90611e74565b80156111da5780601f106111af576101008083540402835291602001916111da565b820191906000526020600020905b8154815290600101906020018083116111bd57829003601f168201915b505050505081526020016002820160009054906101000a900473ffffffffffffffffffffffffffffffffffffffff1673ffffffffffffffffffffffffffffffffffffffff1673ffffffffffffffffffffffffffffffffffffffff168152602001600382015481526020016004820154815260200160058201548152602001600682018054806020026020016040519081016040528092919081815260200182805480156112dc57602002820191906000526020600020905b8160009054906101000a900473ffffffffffffffffffffffffffffffffffffffff1673ffffffffffffffffffffffffffffffffffffffff1681526020019060010190808311611292575b505050505081526020016007820180548060200260200160405190810160405280929190818152602001828054801561136a57602002820191906000526020600020905b8160009054906101000a900473ffffffffffffffffffffffffffffffffffffffff1673ffffffffffffffffffffffffffffffffffffffff1681526020019060010190808311611320575b505050505081526020016008820160009054906101000a900460ff1615151515815250509050806040015173ffffffffffffffffffffffffffffffffffffffff163373ffffffffffffffffffffffffffffffffffffffff1614611402576040517f08c379a00000000000000000000000000000000000000000000000000000000081526004016113f990611c88565b60405180910390fd5b60005b8160c00151518160ff16101561147957611466838360c001518360ff1681518110611459577f4e487b7100000000000000000000000000000000000000000000000000000000600052603260045260246000fd5b602002602001015161060b565b808061147190611ea6565b915050611405565b505050565b82805461148a90611e74565b90600052602060002090601f0160209004810192826114ac57600085556114f3565b82601f106114c557805160ff19168380011785556114f3565b828001600101855582156114f3579182015b828111156114f25782518255916020019190600101906114d7565b5b509050611500919061158e565b5090565b82805482825590600052602060002090810192821561157d579160200282015b8281111561157c5782518260006101000a81548173ffffffffffffffffffffffffffffffffffffffff021916908373ffffffffffffffffffffffffffffffffffffffff16021790555091602001919060010190611524565b5b50905061158a919061158e565b5090565b5b808211156115a757600081600090555060010161158f565b5090565b6000813590506115ba81612201565b92915050565b6000813590506115cf81612218565b92915050565b60008083601f8401126115e757600080fd5b8235905067ffffffffffffffff81111561160057600080fd5b60208301915083600182028301111561161857600080fd5b9250929050565b60008135905061162e8161222f565b92915050565b60006020828403121561164657600080fd5b6000611654848285016115c0565b91505092915050565b6000806040838503121561167057600080fd5b600061167e858286016115c0565b925050602061168f858286016115ab565b9150509250929050565b6000806000806000608086880312156116b157600080fd5b60006116bf8882890161161f565b95505060206116d08882890161161f565b94505060406116e18882890161161f565b935050606086013567ffffffffffffffff8111156116fe57600080fd5b61170a888289016115d5565b92509250509295509295909350565b61172281611dd3565b82525050565b61173961173482611dd3565b611ed0565b82525050565b61174881611de5565b82525050565b61175781611df1565b82525050565b60006117698385611cde565b9350611776838584611e32565b61177f83611f5c565b840190509392505050565b600061179582611cc8565b61179f8185611cde565b93506117af818560208601611e41565b6117b881611f5c565b840191505092915050565b60006117d0602183611cde565b91506117db82611f7a565b604082019050919050565b60006117f3602283611cde565b91506117fe82611fc9565b604082019050919050565b6000611816601983611cde565b915061182182612018565b602082019050919050565b6000611839601983611cde565b915061184482612041565b602082019050919050565b600061185c601083611cde565b91506118678261206a565b602082019050919050565b600061187f601e83611cde565b915061188a82612093565b602082019050919050565b60006118a2602583611cde565b91506118ad826120bc565b604082019050919050565b60006118c5602f83611cde565b91506118d08261210b565b604082019050919050565b60006118e8601f83611cde565b91506118f38261215a565b602082019050919050565b600061190b601883611cde565b915061191682612183565b602082019050919050565b600061192e600083611cd3565b9150611939826121ac565b600082019050919050565b6000611951600e83611cde565b915061195c826121af565b602082019050919050565b6000611974601283611cde565b915061197f826121d8565b602082019050919050565b61199381611e1b565b82525050565b6119aa6119a582611e1b565b611ef4565b82525050565b60006119bc8288611728565b6014820191506119cc8287611728565b6014820191506119dc8286611999565b6020820191506119ec8285611999565b6020820191506119fc8284611999565b6020820191508190509695505050505050565b6000611a1a82611921565b9150819050919050565b6000602082019050611a39600083018461174e565b92915050565b6000604082019050611a54600083018561174e565b611a616020830184611719565b9392505050565b600060c082019050611a7d600083018a61174e565b611a8a6020830189611719565b611a97604083018861198a565b611aa4606083018761198a565b611ab1608083018661198a565b81810360a0830152611ac481848661175d565b905098975050505050505050565b600060e082019050611ae7600083018a61174e565b8181036020830152611af9818961178a565b9050611b086040830188611719565b611b15606083018761198a565b611b22608083018661198a565b611b2f60a083018561198a565b611b3c60c083018461173f565b98975050505050505050565b60006020820190508181036000830152611b61816117c3565b9050919050565b60006020820190508181036000830152611b81816117e6565b9050919050565b60006020820190508181036000830152611ba181611809565b9050919050565b60006020820190508181036000830152611bc18161182c565b9050919050565b60006020820190508181036000830152611be18161184f565b9050919050565b60006020820190508181036000830152611c0181611872565b9050919050565b60006020820190508181036000830152611c2181611895565b9050919050565b60006020820190508181036000830152611c41816118b8565b9050919050565b60006020820190508181036000830152611c61816118db565b9050919050565b60006020820190508181036000830152611c81816118fe565b9050919050565b60006020820190508181036000830152611ca181611944565b9050919050565b60006020820190508181036000830152611cc181611967565b9050919050565b600081519050919050565b600081905092915050565b600082825260208201905092915050565b6000611cfa82611e1b565b9150611d0583611e1b565b9250827fffffffffffffffffffffffffffffffffffffffffffffffffffffffffffffffff03821115611d3a57611d39611efe565b5b828201905092915050565b6000611d5082611e1b565b9150611d5b83611e1b565b9250817fffffffffffffffffffffffffffffffffffffffffffffffffffffffffffffffff0483118215151615611d9457611d93611efe565b5b828202905092915050565b6000611daa82611e1b565b9150611db583611e1b565b925082821015611dc857611dc7611efe565b5b828203905092915050565b6000611dde82611dfb565b9050919050565b60008115159050919050565b6000819050919050565b600073ffffffffffffffffffffffffffffffffffffffff82169050919050565b6000819050919050565b600060ff82169050919050565b82818337600083830152505050565b60005b83811015611e5f578082015181840152602081019050611e44565b83811115611e6e576000848401525b50505050565b60006002820490506001821680611e8c57607f821691505b60208210811415611ea057611e9f611f2d565b5b50919050565b6000611eb182611e25565b915060ff821415611ec557611ec4611efe565b5b600182019050919050565b6000611edb82611ee2565b9050919050565b6000611eed82611f6d565b9050919050565b6000819050919050565b7f4e487b7100000000000000000000000000000000000000000000000000000000600052601160045260246000fd5b7f4e487b7100000000000000000000000000000000000000000000000000000000600052602260045260246000fd5b6000601f19601f8301169050919050565b60008160601b9050919050565b7f484153204e4f5420504153534544203720444159532053494e4345204556454e60008201527f5400000000000000000000000000000000000000000000000000000000000000602082015250565b7f4556454e54204841532052454143484544204d4158494d554d2043415041434960008201527f5459000000000000000000000000000000000000000000000000000000000000602082015250565b7f415454454e444545204e4f5420494e2052535650204c49535400000000000000600082015250565b7f415454454e4445452048415320414c5245414459205041494400000000000000600082015250565b7f414c52454144592050414944204f555400000000000000000000000000000000600082015250565b7f415454454e4445452048415320414c524541445920434f4e4649524d45440000600082015250565b7f4641494c454420544f2053454e442045544845523a20494e20434f4e4649524d60008201527f4154494f4e000000000000000000000000000000000000000000000000000000602082015250565b7f4641494c454420544f2053454e442045544845523a207769746864726177556e60008201527f636c61696d65644465706f736974730000000000000000000000000000000000602082015250565b7f525356502048415320414c5245414459204245454e20434f4e4649524d454400600082015250565b7f4556454e542048415320414c5245414459205041535345440000000000000000600082015250565b50565b7f4e4f5420415554484f52495a4544000000000000000000000000000000000000600082015250565b7f494e53554646494349454e542046554e44530000000000000000000000000000600082015250565b61220a81611dd3565b811461221557600080fd5b50565b61222181611df1565b811461222c57600080fd5b50565b61223881611e1b565b811461224357600080fd5b5056fea2646970667358221220718d14afa3bf21ba7bc2af5d6dcf25e8ada9c4b276eb09e7f4621e3185ff975f64736f6c63430008040033",
  "linkReferences": {},
  "deployedLinkReferences": {}
}